:20C000002182F2B080FF2B001524D2E321008143000081430200043C91530000816302008E
:20C02000819302000420B19010270000F52BF2F07F002B00F2B040002B001624F2E0400049
:20C0400021008143000081430200043C9153000081630200819302000420B1901027000079
:20C06000F52BF2F0BF002B0021520013B240805A2001F2D041002200F2F03F002A00F2D02F
:20C08000C0002F00F2D0C0002900F2F03F002C00F2D0C0002D00F2F03F002B0032D2FF3F7C
:20C0A00031400004B012B4C00C43B0126CC01C43B012C6C0B240805A20011C43304132D032
:0CC0C0001000FD3F03430343FF3F034318
:02FFDE00FFFF23
:02FFE000BEC0A1
:02FFE400BEC09D
:02FFE60000C059
:02FFEA00BEC097
:02FFEC00BEC095
:02FFEE00BEC093
:02FFF000BEC091
:02FFF200BEC08F
:02FFF400BEC08D
:02FFF600BEC08B
:02FFF800BEC089
:02FFFA00BEC087
:02FFFC00BEC085
:02FFFE00A0C0A1
:00000001FF
