:20C00000F2D0C0002600F2D0C0004100D2D36900F24007006800B24048001801D2C36900B5
:20C02000E2D201003041B240805A2001D242FF105700D242FE105600D2D32200D2C321007E
:20C04000B01200C032D2FF3FF29055006E000324D2C321000013D2D3210000133140000499
:20C06000B01270C00C43B01226C01C43B01282C0B240805A20011C43304132D01000FD3F69
:08C0800003430343FF3F0343A8
:02FFDE00FFFF23
:02FFE0007AC0E5
:02FFE4007AC0E1
:02FFE6007AC0DF
:02FFEA007AC0DB
:02FFEC007AC0D9
:02FFEE0048C009
:02FFF0007AC0D5
:02FFF2007AC0D3
:02FFF4007AC0D1
:02FFF6007AC0CF
:02FFF8007AC0CD
:02FFFA007AC0CB
:02FFFC007AC0C9
:02FFFE005CC0E5
:00000001FF
