:20C00000B240805A2001D242FF105700D242FE105600F2D0C0002600F2D0C0004100D2D331
:20C020006900F2400F006800F24081006900F2400C006A00C2436B00B24048001A01D2C3D0
:20C040006900E2B26900FD23F2D012006900F2B20300FD27F24055006F00F2B20300FD2791
:20C06000E2D26900F2C20300E2B26900FD23B01274C0E73F218381430000023C9153000029
:20C08000B19050C30000FA2B2153304131400004B012A0C00C43B01200C01C43B012B2C047
:18C0A000B240805A20011C43304132D01000FD3F03430343FF3F03436D
:02FFDE00FFFF23
:02FFE000AAC0B5
:02FFE400AAC0B1
:02FFE600AAC0AF
:02FFEA00AAC0AB
:02FFEC00AAC0A9
:02FFEE00AAC0A7
:02FFF000AAC0A5
:02FFF200AAC0A3
:02FFF400AAC0A1
:02FFF600AAC09F
:02FFF800AAC09D
:02FFFA00AAC09B
:02FFFC00AAC099
:02FFFE008CC0B5
:00000001FF
