:20C00000B240805A2001F2D0E7002200F2D0E0002A00F2D007001A00F2D007002100F2F0ED
:20C020001F002100F2D0E0002900F2F0F8001900D2C32100E2D32100E2D22100F2D02000BF
:20C040002100F2F0BF002100F2F07F002100F2D020002900F2D040002900F2F07F002900BB
:20C06000D2D31900E2C31900E2C219003C401E00B01224C1D2D32100E2C321003C4003003B
:20C08000B01224C1E2D32100E2C22100F2D020002100F2D0800021003C401900B01224C1BC
:20C0A000F2F07F002100F2D0400021003C400300B01224C1F2F0DF002100F2F0BF00210011
:20C0C000F2F0DF002900F2D040002900F2D0800029003C400F00B01224C1F2D020002900A3
:20C0E000F2F0BF0029003C400300B01224C1F2D040002900F2F07F002900D2C31900E2D239
:20C1000019003C401400B01224C1E2C21900E2D319003C400300B01224C1E2C31900D2D3BB
:20C120001900863F218381430000023C91530000B190E8030000FA2B1C83F52321533041AA
:20C1400031400004B01254C10C43B01200C01C43B01266C1B240805A20011C43304132D0BB
:0CC160001000FD3F03430343FF3F034377
:02FFDE00FFFF23
:02FFE0005EC100
:02FFE4005EC1FC
:02FFE6005EC1FA
:02FFEA005EC1F6
:02FFEC005EC1F4
:02FFEE005EC1F2
:02FFF0005EC1F0
:02FFF2005EC1EE
:02FFF4005EC1EC
:02FFF6005EC1EA
:02FFF8005EC1E8
:02FFFA005EC1E6
:02FFFC005EC1E4
:02FFFE0040C100
:00000001FF
