:20C00000B240805A2001F2D0E7002200F2D0E0002A00F2D007001A00F2D007002100F2F0ED
:20C020001F002100F2D0E0002900F2F0F8001900D2C32100E2D32100E2D22100F2D02000BF
:20C040002100F2F0BF002100F2F07F002100F2D020002900F2D040002900F2F07F002900BB
:20C06000D2D31900E2C31900E2C21900B01218C1D2D32100E2C32100B01218C1E2D32100EF
:20C08000E2C22100F2D020002100F2D080002100B01218C1F2F07F002100F2D04000210035
:20C0A000B01218C1F2F0DF002100F2F0BF002100F2F0DF002900F2D040002900F2D08000EA
:20C0C0002900B01218C1F2D020002900F2F0BF002900B01218C1F2D040002900F2F07F00A0
:20C0E0002900D2C31900E2D21900B01218C1E2C21900E2D31900B01218C1E2C31900D2D378
:20C100001900963F31400004B01228C10C43B01200C01C43B0123AC12183814300002F414C
:20C12000915300002F41FC3FB240805A20011C43304132D01000FD3F03430343FF3F034355
:02FFDE00FFFF23
:02FFE00032C12C
:02FFE40032C128
:02FFE60032C126
:02FFEA0032C122
:02FFEC0032C120
:02FFEE0032C11E
:02FFF00032C11C
:02FFF20032C11A
:02FFF40032C118
:02FFF60032C116
:02FFF80032C114
:02FFFA0032C112
:02FFFC0032C110
:02FFFE0004C13C
:00000001FF
