:20C00000B240805A2001D2D32200D2C32100E2C22200E2D22700E2D22100E2D22600E2C2C2
:20C020004100B24024026001B24010C9640132D2FF3F31400004B01256C00C43B01200C0B6
:20C040001C43B01268C0A2932E010420D2E3210092C364010013B240805A20011C433041AF
:0EC0600032D01000FD3F03430343FF3F034374
:02FFDE00FFFF23
:02FFE00060C0FF
:02FFE40060C0FB
:02FFE60060C0F9
:02FFEA0060C0F5
:02FFEC0060C0F3
:02FFEE0060C0F1
:02FFF00046C009
:02FFF20060C0ED
:02FFF40060C0EB
:02FFF60060C0E9
:02FFF80060C0E7
:02FFFA0060C0E5
:02FFFC0060C0E3
:02FFFE0032C00F
:00000001FF
