:20C000002183B240805A2001F2F0FC002E00F2F0FC004200F2D003002A00F2F0FC0029006D
:20C02000F2E003002900B1430000023C9183000081930000F527FA3F31400004B0124CC010
:20C040000C43B01200C01C43B0125EC0B240805A20011C43304132D01000FD3F0343034339
:04C06000FF3F034358
:02FFDE00FFFF23
:02FFE00056C009
:02FFE40056C005
:02FFE60056C003
:02FFEA0056C0FF
:02FFEC0056C0FD
:02FFEE0056C0FB
:02FFF00056C0F9
:02FFF20056C0F7
:02FFF40056C0F5
:02FFF60056C0F3
:02FFF80056C0F1
:02FFFA0056C0EF
:02FFFC0056C0ED
:02FFFE0038C009
:00000001FF
