:20C00000B240805A2001F2D0C0002200F2D0C0002600B240E7037201B240FA007401B24045
:20C02000EE027601B240E0006401B240E0006601B240140260010343FE3F31400004B01206
:20C040004EC00C43B01200C01C43B01260C0B240805A20011C43304132D01000FD3F03436F
:06C060000343FF3F034310
:02FFDE00FFFF23
:02FFE00058C007
:02FFE40058C003
:02FFE60058C001
:02FFEA0058C0FD
:02FFEC0058C0FB
:02FFEE0058C0F9
:02FFF00058C0F7
:02FFF20058C0F5
:02FFF40058C0F3
:02FFF60058C0F1
:02FFF80058C0EF
:02FFFA0058C0ED
:02FFFC0058C0EB
:02FFFE003AC007
:00000001FF
